{
  "contractName": "event_challenge",
  "abi": [
    {
      "anonymous": false,
      "inputs": [
        {
          "indexed": true,
          "internalType": "address",
          "name": "account_no",
          "type": "address"
        },
        {
          "indexed": false,
          "internalType": "uint256",
          "name": "amount",
          "type": "uint256"
        }
      ],
      "name": "shares_bought",
      "type": "event"
    },
    {
      "anonymous": false,
      "inputs": [
        {
          "indexed": true,
          "internalType": "address",
          "name": "account_no",
          "type": "address"
        },
        {
          "indexed": false,
          "internalType": "uint256",
          "name": "amount",
          "type": "uint256"
        }
      ],
      "name": "shares_sold",
      "type": "event"
    },
    {
      "anonymous": false,
      "inputs": [
        {
          "indexed": true,
          "internalType": "address",
          "name": "account_no",
          "type": "address"
        },
        {
          "indexed": false,
          "internalType": "uint256",
          "name": "divided_in",
          "type": "uint256"
        }
      ],
      "name": "shares_split",
      "type": "event"
    },
    {
      "anonymous": false,
      "inputs": [
        {
          "indexed": true,
          "internalType": "address",
          "name": "sender",
          "type": "address"
        },
        {
          "indexed": true,
          "internalType": "address",
          "name": "reciever",
          "type": "address"
        },
        {
          "indexed": false,
          "internalType": "uint256",
          "name": "amount",
          "type": "uint256"
        }
      ],
      "name": "shares_transferred",
      "type": "event"
    },
    {
      "inputs": [
        {
          "internalType": "address",
          "name": "",
          "type": "address"
        }
      ],
      "name": "account_share",
      "outputs": [
        {
          "internalType": "uint256",
          "name": "",
          "type": "uint256"
        }
      ],
      "stateMutability": "view",
      "type": "function",
      "constant": true
    },
    {
      "inputs": [],
      "name": "shareName",
      "outputs": [
        {
          "internalType": "string",
          "name": "",
          "type": "string"
        }
      ],
      "stateMutability": "view",
      "type": "function",
      "constant": true
    },
    {
      "inputs": [
        {
          "internalType": "address",
          "name": "addr",
          "type": "address"
        },
        {
          "internalType": "uint256",
          "name": "amount",
          "type": "uint256"
        }
      ],
      "name": "Shares_bought",
      "outputs": [],
      "stateMutability": "payable",
      "type": "function",
      "payable": true
    },
    {
      "inputs": [
        {
          "internalType": "address",
          "name": "addr",
          "type": "address"
        },
        {
          "internalType": "uint256",
          "name": "amount",
          "type": "uint256"
        }
      ],
      "name": "Shares_sold",
      "outputs": [],
      "stateMutability": "payable",
      "type": "function",
      "payable": true
    },
    {
      "inputs": [
        {
          "internalType": "address",
          "name": "addr",
          "type": "address"
        },
        {
          "internalType": "uint256",
          "name": "split_one_share_in",
          "type": "uint256"
        }
      ],
      "name": "Shares_split",
      "outputs": [],
      "stateMutability": "payable",
      "type": "function",
      "payable": true
    },
    {
      "inputs": [
        {
          "internalType": "address",
          "name": "sender",
          "type": "address"
        },
        {
          "internalType": "address",
          "name": "reciever",
          "type": "address"
        },
        {
          "internalType": "uint256",
          "name": "amount",
          "type": "uint256"
        }
      ],
      "name": "Share_transferred",
      "outputs": [],
      "stateMutability": "payable",
      "type": "function",
      "payable": true
    },
    {
      "inputs": [
        {
          "internalType": "address",
          "name": "addr",
          "type": "address"
        }
      ],
      "name": "get_balance",
      "outputs": [
        {
          "internalType": "uint256",
          "name": "",
          "type": "uint256"
        }
      ],
      "stateMutability": "view",
      "type": "function",
      "constant": true
    }
  ],
  "bytecode": "0x60806040526040518060400160405280600581526020017f48454c4c4f0000000000000000000000000000000000000000000000000000008152506000908051906020019061004f929190610062565b5034801561005c57600080fd5b50610166565b82805461006e90610134565b90600052602060002090601f01602090048101928261009057600085556100d7565b82601f106100a957805160ff19168380011785556100d7565b828001600101855582156100d7579182015b828111156100d65782518255916020019190600101906100bb565b5b5090506100e491906100e8565b5090565b5b808211156101015760008160009055506001016100e9565b5090565b7f4e487b7100000000000000000000000000000000000000000000000000000000600052602260045260246000fd5b6000600282049050600182168061014c57607f821691505b602082108114156101605761015f610105565b5b50919050565b610ae7806101756000396000f3fe6080604052600436106100705760003560e01c80637ea0907c1161004e5780637ea0907c1461011a5780637f2301f6146101365780638884c57214610152578063c51fd2ad1461016e57610070565b80631e279a37146100755780636c5ba4e2146100b257806376e9790a146100ef575b600080fd5b34801561008157600080fd5b5061009c600480360381019061009791906106f6565b61018a565b6040516100a9919061073c565b60405180910390f35b3480156100be57600080fd5b506100d960048036038101906100d491906106f6565b6101d3565b6040516100e6919061073c565b60405180910390f35b3480156100fb57600080fd5b506101046101eb565b60405161011191906107f0565b60405180910390f35b610134600480360381019061012f919061083e565b610279565b005b610150600480360381019061014b919061087e565b610321565b005b61016c6004803603810190610167919061083e565b6104bd565b005b6101886004803603810190610183919061083e565b6105eb565b005b6000600160008373ffffffffffffffffffffffffffffffffffffffff1673ffffffffffffffffffffffffffffffffffffffff168152602001908152602001600020549050919050565b60016020528060005260406000206000915090505481565b600080546101f890610900565b80601f016020809104026020016040519081016040528092919081815260200182805461022490610900565b80156102715780601f1061024657610100808354040283529160200191610271565b820191906000526020600020905b81548152906001019060200180831161025457829003601f168201915b505050505081565b80600160008473ffffffffffffffffffffffffffffffffffffffff1673ffffffffffffffffffffffffffffffffffffffff16815260200190815260200160002060008282546102c89190610961565b925050819055508173ffffffffffffffffffffffffffffffffffffffff167fe166f4d760b98e39f0fff1225695c54718a47dc42e2a6949871109b88fbacb5f82604051610315919061073c565b60405180910390a25050565b828180600160008473ffffffffffffffffffffffffffffffffffffffff1673ffffffffffffffffffffffffffffffffffffffff1681526020019081526020016000205410156103a5576040517f08c379a000000000000000000000000000000000000000000000000000000000815260040161039c90610a03565b60405180910390fd5b82600160008773ffffffffffffffffffffffffffffffffffffffff1673ffffffffffffffffffffffffffffffffffffffff16815260200190815260200160002060008282546103f49190610a23565b9250508190555082600160008673ffffffffffffffffffffffffffffffffffffffff1673ffffffffffffffffffffffffffffffffffffffff168152602001908152602001600020600082825461044a9190610961565b925050819055508373ffffffffffffffffffffffffffffffffffffffff168573ffffffffffffffffffffffffffffffffffffffff167fd4ec391cb0bf4c6b1df32102f35d3376788dce19b59dbed5537f59140e995778856040516104ae919061073c565b60405180910390a35050505050565b818180600160008473ffffffffffffffffffffffffffffffffffffffff1673ffffffffffffffffffffffffffffffffffffffff168152602001908152602001600020541015610541576040517f08c379a000000000000000000000000000000000000000000000000000000000815260040161053890610a03565b60405180910390fd5b82600160008673ffffffffffffffffffffffffffffffffffffffff1673ffffffffffffffffffffffffffffffffffffffff16815260200190815260200160002060008282546105909190610a23565b925050819055508373ffffffffffffffffffffffffffffffffffffffff167fcbca466afd78052d5fe6dcb9014be0942f283e37c4e3aa4901dc78089f408a46846040516105dd919061073c565b60405180910390a250505050565b80600160008473ffffffffffffffffffffffffffffffffffffffff1673ffffffffffffffffffffffffffffffffffffffff168152602001908152602001600020600082825461063a9190610a57565b925050819055508173ffffffffffffffffffffffffffffffffffffffff167f268574777b4c1ea2071ebf38a3fd99e38ec627c8b8db0afb33058c4cd3b135f882604051610687919061073c565b60405180910390a25050565b600080fd5b600073ffffffffffffffffffffffffffffffffffffffff82169050919050565b60006106c382610698565b9050919050565b6106d3816106b8565b81146106de57600080fd5b50565b6000813590506106f0816106ca565b92915050565b60006020828403121561070c5761070b610693565b5b600061071a848285016106e1565b91505092915050565b6000819050919050565b61073681610723565b82525050565b6000602082019050610751600083018461072d565b92915050565b600081519050919050565b600082825260208201905092915050565b60005b83811015610791578082015181840152602081019050610776565b838111156107a0576000848401525b50505050565b6000601f19601f8301169050919050565b60006107c282610757565b6107cc8185610762565b93506107dc818560208601610773565b6107e5816107a6565b840191505092915050565b6000602082019050818103600083015261080a81846107b7565b905092915050565b61081b81610723565b811461082657600080fd5b50565b60008135905061083881610812565b92915050565b6000806040838503121561085557610854610693565b5b6000610863858286016106e1565b925050602061087485828601610829565b9150509250929050565b60008060006060848603121561089757610896610693565b5b60006108a5868287016106e1565b93505060206108b6868287016106e1565b92505060406108c786828701610829565b9150509250925092565b7f4e487b7100000000000000000000000000000000000000000000000000000000600052602260045260246000fd5b6000600282049050600182168061091857607f821691505b6020821081141561092c5761092b6108d1565b5b50919050565b7f4e487b7100000000000000000000000000000000000000000000000000000000600052601160045260246000fd5b600061096c82610723565b915061097783610723565b9250827fffffffffffffffffffffffffffffffffffffffffffffffffffffffffffffffff038211156109ac576109ab610932565b5b828201905092915050565b7f594f5520444f204e4f54204841564520454e4f55474820534841524553000000600082015250565b60006109ed601d83610762565b91506109f8826109b7565b602082019050919050565b60006020820190508181036000830152610a1c816109e0565b9050919050565b6000610a2e82610723565b9150610a3983610723565b925082821015610a4c57610a4b610932565b5b828203905092915050565b6000610a6282610723565b9150610a6d83610723565b9250817fffffffffffffffffffffffffffffffffffffffffffffffffffffffffffffffff0483118215151615610aa657610aa5610932565b5b82820290509291505056fea26469706673582212201040b1a5a2604c060f3ffd2d3d10800e3e5dc3e47044e5c1a0bba2545481fa5b64736f6c63430008090033",
  "immutableReferences": {},
  "source": "    // SPDX-License-Identifier: MIT\r\n    pragma solidity >=0.8.9; \r\n\r\n    contract event_challenge\r\n    {\r\n        string public shareName = \"HELLO\";\r\n        mapping(address => uint) public account_share;\r\n\r\n        event shares_bought(address indexed account_no, uint amount);\r\n        event shares_sold(address indexed account_no, uint amount);\r\n        event shares_split(address indexed account_no, uint divided_in);\r\n        event shares_transferred(address indexed sender, address indexed reciever, uint amount);\r\n\r\n        modifier check_balance(address add, uint amount)\r\n        {\r\n            require(account_share[add] >= amount, \"YOU DO NOT HAVE ENOUGH SHARES\"); \r\n        _;}\r\n\r\n        function Shares_bought(address addr, uint amount) public payable\r\n        {\r\n            account_share[addr] += amount;\r\n            emit shares_bought(addr,amount);\r\n        }\r\n\r\n        function Shares_sold(address addr, uint amount) public payable check_balance(addr, amount) \r\n        {\r\n            account_share[addr] -= amount;\r\n            emit shares_sold(addr,amount);\r\n        }\r\n\r\n        function Shares_split(address addr, uint split_one_share_in) public payable \r\n        {\r\n            account_share[addr] *= split_one_share_in;\r\n            emit shares_split(addr, split_one_share_in);\r\n        }\r\n\r\n        function Share_transferred(address sender, address reciever, uint amount) public payable check_balance(sender, amount) \r\n        {\r\n            account_share[sender] -= amount;\r\n            account_share[reciever] += amount;\r\n            emit shares_transferred(sender, reciever, amount); \r\n        } \r\n\r\n        function get_balance(address addr) public view returns (uint)\r\n        {\r\n            return account_share[addr];\r\n        }\r\n\r\n    }\r\n\r\n",
  "sourcePath": "C:\\Users\\MOHIT\\TR\\contracts\\event.sol",
  "compiler": {
    "name": "solc",
    "version": "0.8.9+commit.e5eed63a.Emscripten.clang"
  },
  "schemaVersion": "3.4.16",
  "updatedAt": "2024-06-21T13:13:27.962Z",
  "networkType": "ethereum",
  "devdoc": {
    "kind": "dev",
    "methods": {},
    "version": 1
  },
  "userdoc": {
    "kind": "user",
    "methods": {},
    "version": 1
  }
}